{
  "contractName": "gfg",
  "abi": [
    {
      "inputs": [
        {
          "internalType": "uint256",
          "name": "",
          "type": "uint256"
        }
      ],
      "name": "blockchain",
      "outputs": [
        {
          "internalType": "string",
          "name": "descr",
          "type": "string"
        },
        {
          "internalType": "string",
          "name": "product_id",
          "type": "string"
        }
      ],
      "stateMutability": "view",
      "type": "function",
      "constant": true
    },
    {
      "inputs": [],
      "name": "geeks",
      "outputs": [
        {
          "internalType": "string",
          "name": "",
          "type": "string"
        }
      ],
      "stateMutability": "pure",
      "type": "function",
      "constant": true
    },
    {
      "inputs": [
        {
          "internalType": "string",
          "name": "_descr",
          "type": "string"
        },
        {
          "internalType": "uint256[]",
          "name": "_prev_addr",
          "type": "uint256[]"
        },
        {
          "internalType": "string",
          "name": "_product_id",
          "type": "string"
        }
      ],
      "name": "addBlock",
      "outputs": [],
      "stateMutability": "nonpayable",
      "type": "function"
    },
    {
      "inputs": [],
      "name": "getBlockchain",
      "outputs": [
        {
          "components": [
            {
              "internalType": "string",
              "name": "descr",
              "type": "string"
            },
            {
              "internalType": "uint256[]",
              "name": "prev_addr",
              "type": "uint256[]"
            },
            {
              "internalType": "string",
              "name": "product_id",
              "type": "string"
            }
          ],
          "internalType": "struct gfg.Block[]",
          "name": "",
          "type": "tuple[]"
        }
      ],
      "stateMutability": "view",
      "type": "function",
      "constant": true
    }
  ],
  "bytecode": "0x608060405234801561000f575f80fd5b50610e2a8061001d5f395ff3fe608060405234801561000f575f80fd5b506004361061004a575f3560e01c80633d46424f1461004e578063c25b1eaf1461006c578063cf45cd541461009d578063f1a62c71146100b9575b5f80fd5b6100566100d7565b6040516100639190610774565b60405180910390f35b610086600480360381019061008191906107cf565b6102a7565b604051610094929190610842565b60405180910390f35b6100b760048036038101906100b29190610a67565b6103e1565b005b6100c1610471565b6040516100ce9190610b0b565b60405180910390f35b60605f805480602002602001604051908101604052809291908181526020015f905b8282101561029e578382905f5260205f2090600302016040518060600160405290815f8201805461012990610b58565b80601f016020809104026020016040519081016040528092919081815260200182805461015590610b58565b80156101a05780601f10610177576101008083540402835291602001916101a0565b820191905f5260205f20905b81548152906001019060200180831161018357829003601f168201915b50505050508152602001600182018054806020026020016040519081016040528092919081815260200182805480156101f657602002820191905f5260205f20905b8154815260200190600101908083116101e2575b5050505050815260200160028201805461020f90610b58565b80601f016020809104026020016040519081016040528092919081815260200182805461023b90610b58565b80156102865780601f1061025d57610100808354040283529160200191610286565b820191905f5260205f20905b81548152906001019060200180831161026957829003601f168201915b505050505081525050815260200190600101906100f9565b50505050905090565b5f81815481106102b5575f80fd5b905f5260205f2090600302015f91509050805f0180546102d490610b58565b80601f016020809104026020016040519081016040528092919081815260200182805461030090610b58565b801561034b5780601f106103225761010080835404028352916020019161034b565b820191905f5260205f20905b81548152906001019060200180831161032e57829003601f168201915b50505050509080600201805461036090610b58565b80601f016020809104026020016040519081016040528092919081815260200182805461038c90610b58565b80156103d75780601f106103ae576101008083540402835291602001916103d7565b820191905f5260205f20905b8154815290600101906020018083116103ba57829003601f168201915b5050505050905082565b5f604051806060016040528085815260200184815260200183815250908060018154018082558091505060019003905f5260205f2090600302015f909190919091505f820151815f0190816104369190610d25565b5060208201518160010190805190602001906104539291906104ae565b5060408201518160020190816104699190610d25565b505050505050565b60606040518060400160405280600f81526020017f48656c6c6f206d72207065726572610000000000000000000000000000000000815250905090565b828054828255905f5260205f209081019282156104e8579160200282015b828111156104e75782518255916020019190600101906104cc565b5b5090506104f591906104f9565b5090565b5b80821115610510575f815f9055506001016104fa565b5090565b5f81519050919050565b5f82825260208201905092915050565b5f819050602082019050919050565b5f81519050919050565b5f82825260208201905092915050565b5f5b83811015610574578082015181840152602081019050610559565b5f8484015250505050565b5f601f19601f8301169050919050565b5f6105998261053d565b6105a38185610547565b93506105b3818560208601610557565b6105bc8161057f565b840191505092915050565b5f81519050919050565b5f82825260208201905092915050565b5f819050602082019050919050565b5f819050919050565b610602816105f0565b82525050565b5f61061383836105f9565b60208301905092915050565b5f602082019050919050565b5f610635826105c7565b61063f81856105d1565b935061064a836105e1565b805f5b8381101561067a5781516106618882610608565b975061066c8361061f565b92505060018101905061064d565b5085935050505092915050565b5f606083015f8301518482035f8601526106a1828261058f565b915050602083015184820360208601526106bb828261062b565b915050604083015184820360408601526106d5828261058f565b9150508091505092915050565b5f6106ed8383610687565b905092915050565b5f602082019050919050565b5f61070b82610514565b610715818561051e565b9350836020820285016107278561052e565b805f5b85811015610762578484038952815161074385826106e2565b945061074e836106f5565b925060208a0199505060018101905061072a565b50829750879550505050505092915050565b5f6020820190508181035f83015261078c8184610701565b905092915050565b5f604051905090565b5f80fd5b5f80fd5b6107ae816105f0565b81146107b8575f80fd5b50565b5f813590506107c9816107a5565b92915050565b5f602082840312156107e4576107e361079d565b5b5f6107f1848285016107bb565b91505092915050565b5f82825260208201905092915050565b5f6108148261053d565b61081e81856107fa565b935061082e818560208601610557565b6108378161057f565b840191505092915050565b5f6040820190508181035f83015261085a818561080a565b9050818103602083015261086e818461080a565b90509392505050565b5f80fd5b5f80fd5b7f4e487b71000000000000000000000000000000000000000000000000000000005f52604160045260245ffd5b6108b58261057f565b810181811067ffffffffffffffff821117156108d4576108d361087f565b5b80604052505050565b5f6108e6610794565b90506108f282826108ac565b919050565b5f67ffffffffffffffff8211156109115761091061087f565b5b61091a8261057f565b9050602081019050919050565b828183375f83830152505050565b5f610947610942846108f7565b6108dd565b9050828152602081018484840111156109635761096261087b565b5b61096e848285610927565b509392505050565b5f82601f83011261098a57610989610877565b5b813561099a848260208601610935565b91505092915050565b5f67ffffffffffffffff8211156109bd576109bc61087f565b5b602082029050602081019050919050565b5f80fd5b5f6109e46109df846109a3565b6108dd565b90508083825260208201905060208402830185811115610a0757610a066109ce565b5b835b81811015610a305780610a1c88826107bb565b845260208401935050602081019050610a09565b5050509392505050565b5f82601f830112610a4e57610a4d610877565b5b8135610a5e8482602086016109d2565b91505092915050565b5f805f60608486031215610a7e57610a7d61079d565b5b5f84013567ffffffffffffffff811115610a9b57610a9a6107a1565b5b610aa786828701610976565b935050602084013567ffffffffffffffff811115610ac857610ac76107a1565b5b610ad486828701610a3a565b925050604084013567ffffffffffffffff811115610af557610af46107a1565b5b610b0186828701610976565b9150509250925092565b5f6020820190508181035f830152610b23818461080a565b905092915050565b7f4e487b71000000000000000000000000000000000000000000000000000000005f52602260045260245ffd5b5f6002820490506001821680610b6f57607f821691505b602082108103610b8257610b81610b2b565b5b50919050565b5f819050815f5260205f209050919050565b5f6020601f8301049050919050565b5f82821b905092915050565b5f60088302610be47fffffffffffffffffffffffffffffffffffffffffffffffffffffffffffffffff82610ba9565b610bee8683610ba9565b95508019841693508086168417925050509392505050565b5f819050919050565b5f610c29610c24610c1f846105f0565b610c06565b6105f0565b9050919050565b5f819050919050565b610c4283610c0f565b610c56610c4e82610c30565b848454610bb5565b825550505050565b5f90565b610c6a610c5e565b610c75818484610c39565b505050565b5b81811015610c9857610c8d5f82610c62565b600181019050610c7b565b5050565b601f821115610cdd57610cae81610b88565b610cb784610b9a565b81016020851015610cc6578190505b610cda610cd285610b9a565b830182610c7a565b50505b505050565b5f82821c905092915050565b5f610cfd5f1984600802610ce2565b1980831691505092915050565b5f610d158383610cee565b9150826002028217905092915050565b610d2e8261053d565b67ffffffffffffffff811115610d4757610d4661087f565b5b610d518254610b58565b610d5c828285610c9c565b5f60209050601f831160018114610d8d575f8415610d7b578287015190505b610d858582610d0a565b865550610dec565b601f198416610d9b86610b88565b5f5b82811015610dc257848901518255600182019150602085019450602081019050610d9d565b86831015610ddf5784890151610ddb601f891682610cee565b8355505b6001600288020188555050505b50505050505056fea26469706673582212204b48a96aab7ab32ee800bae0a3c5430be092636e6300573bb5e79bb275c2445f64736f6c63430008150033",
  "immutableReferences": {},
  "source": "// SPDX-License-Identifier: UNLICENSED \r\n// Solidity program to print message\r\n\r\npragma solidity >= 0.5.0 < 0.9.0;\r\n\r\ncontract gfg{\r\n    function geeks() public pure returns (string memory) \r\n    {\r\n        return 'Hello mr perera';\r\n    }\r\n\r\n    struct Block{\r\n        string descr;\r\n        uint[] prev_addr;\r\n        string product_id;\r\n        // bytes32 blockHash;\r\n    }\r\n\r\n\r\n    Block[] public blockchain;\r\n\r\n    function addBlock(string memory _descr, uint[] memory _prev_addr, string memory _product_id) public {\r\n        // bytes32 blockHash = keccak256(abi.encodePacked(_descr, _prev_addr, _product_id));\r\n        blockchain.push(Block(_descr,_prev_addr,_product_id));\r\n    }\r\n\r\n    function getBlockchain() public view returns (Block[] memory){\r\n        return blockchain;\r\n    }\r\n\r\n}",
  "sourcePath": "E:\\projects\\finalproject\\product-tracing\\my-flask-backend\\blockchain\\contracts\\gfg.sol",
  "compiler": {
    "name": "solc",
    "version": "0.8.21+commit.d9974bed.Emscripten.clang"
  },
  "schemaVersion": "3.4.16",
  "updatedAt": "2024-04-29T15:52:31.607Z",
  "networkType": "ethereum",
  "devdoc": {
    "kind": "dev",
    "methods": {},
    "version": 1
  },
  "userdoc": {
    "kind": "user",
    "methods": {},
    "version": 1
  }
}