{
  "contractName": "gfg",
  "abi": [
    {
      "inputs": [
        {
          "internalType": "uint256",
          "name": "",
          "type": "uint256"
        }
      ],
      "name": "blockchain",
      "outputs": [
        {
          "internalType": "string",
          "name": "descr",
          "type": "string"
        },
        {
          "internalType": "string",
          "name": "prev_addr",
          "type": "string"
        },
        {
          "internalType": "string",
          "name": "product_id",
          "type": "string"
        }
      ],
      "stateMutability": "view",
      "type": "function",
      "constant": true
    },
    {
      "inputs": [],
      "name": "geeks",
      "outputs": [
        {
          "internalType": "string",
          "name": "",
          "type": "string"
        }
      ],
      "stateMutability": "pure",
      "type": "function",
      "constant": true
    },
    {
      "inputs": [
        {
          "internalType": "string",
          "name": "_descr",
          "type": "string"
        },
        {
          "internalType": "string",
          "name": "_prev_addr",
          "type": "string"
        },
        {
          "internalType": "string",
          "name": "_product_id",
          "type": "string"
        }
      ],
      "name": "addBlock",
      "outputs": [],
      "stateMutability": "nonpayable",
      "type": "function"
    },
    {
      "inputs": [],
      "name": "getBlockchain",
      "outputs": [
        {
          "components": [
            {
              "internalType": "string",
              "name": "descr",
              "type": "string"
            },
            {
              "internalType": "string",
              "name": "prev_addr",
              "type": "string"
            },
            {
              "internalType": "string",
              "name": "product_id",
              "type": "string"
            }
          ],
          "internalType": "struct gfg.Block[]",
          "name": "",
          "type": "tuple[]"
        }
      ],
      "stateMutability": "view",
      "type": "function",
      "constant": true
    }
  ],
  "bytecode": "0x608060405234801561000f575f80fd5b50610d1e8061001d5f395ff3fe608060405234801561000f575f80fd5b506004361061004a575f3560e01c80633d46424f1461004e578063c25b1eaf1461006c578063f1a62c711461009e578063fd228f39146100bc575b5f80fd5b6100566100d8565b604051610063919061070e565b60405180910390f35b61008660048036038101906100819190610772565b6102e2565b604051610095939291906107e5565b60405180910390f35b6100a66104a8565b6040516100b3919061082f565b60405180910390f35b6100d660048036038101906100d1919061097b565b6104e5565b005b60605f805480602002602001604051908101604052809291908181526020015f905b828210156102d9578382905f5260205f2090600302016040518060600160405290815f8201805461012a90610a4c565b80601f016020809104026020016040519081016040528092919081815260200182805461015690610a4c565b80156101a15780601f10610178576101008083540402835291602001916101a1565b820191905f5260205f20905b81548152906001019060200180831161018457829003601f168201915b505050505081526020016001820180546101ba90610a4c565b80601f01602080910402602001604051908101604052809291908181526020018280546101e690610a4c565b80156102315780601f1061020857610100808354040283529160200191610231565b820191905f5260205f20905b81548152906001019060200180831161021457829003601f168201915b5050505050815260200160028201805461024a90610a4c565b80601f016020809104026020016040519081016040528092919081815260200182805461027690610a4c565b80156102c15780601f10610298576101008083540402835291602001916102c1565b820191905f5260205f20905b8154815290600101906020018083116102a457829003601f168201915b505050505081525050815260200190600101906100fa565b50505050905090565b5f81815481106102f0575f80fd5b905f5260205f2090600302015f91509050805f01805461030f90610a4c565b80601f016020809104026020016040519081016040528092919081815260200182805461033b90610a4c565b80156103865780601f1061035d57610100808354040283529160200191610386565b820191905f5260205f20905b81548152906001019060200180831161036957829003601f168201915b50505050509080600101805461039b90610a4c565b80601f01602080910402602001604051908101604052809291908181526020018280546103c790610a4c565b80156104125780601f106103e957610100808354040283529160200191610412565b820191905f5260205f20905b8154815290600101906020018083116103f557829003601f168201915b50505050509080600201805461042790610a4c565b80601f016020809104026020016040519081016040528092919081815260200182805461045390610a4c565b801561049e5780601f106104755761010080835404028352916020019161049e565b820191905f5260205f20905b81548152906001019060200180831161048157829003601f168201915b5050505050905083565b60606040518060400160405280600f81526020017f48656c6c6f206d72207065726572610000000000000000000000000000000000815250905090565b5f604051806060016040528085815260200184815260200183815250908060018154018082558091505060019003905f5260205f2090600302015f909190919091505f820151815f01908161053a9190610c19565b5060208201518160010190816105509190610c19565b5060408201518160020190816105669190610c19565b505050505050565b5f81519050919050565b5f82825260208201905092915050565b5f819050602082019050919050565b5f81519050919050565b5f82825260208201905092915050565b5f5b838110156105ce5780820151818401526020810190506105b3565b5f8484015250505050565b5f601f19601f8301169050919050565b5f6105f382610597565b6105fd81856105a1565b935061060d8185602086016105b1565b610616816105d9565b840191505092915050565b5f606083015f8301518482035f86015261063b82826105e9565b9150506020830151848203602086015261065582826105e9565b9150506040830151848203604086015261066f82826105e9565b9150508091505092915050565b5f6106878383610621565b905092915050565b5f602082019050919050565b5f6106a58261056e565b6106af8185610578565b9350836020820285016106c185610588565b805f5b858110156106fc57848403895281516106dd858261067c565b94506106e88361068f565b925060208a019950506001810190506106c4565b50829750879550505050505092915050565b5f6020820190508181035f830152610726818461069b565b905092915050565b5f604051905090565b5f80fd5b5f80fd5b5f819050919050565b6107518161073f565b811461075b575f80fd5b50565b5f8135905061076c81610748565b92915050565b5f6020828403121561078757610786610737565b5b5f6107948482850161075e565b91505092915050565b5f82825260208201905092915050565b5f6107b782610597565b6107c1818561079d565b93506107d18185602086016105b1565b6107da816105d9565b840191505092915050565b5f6060820190508181035f8301526107fd81866107ad565b9050818103602083015261081181856107ad565b9050818103604083015261082581846107ad565b9050949350505050565b5f6020820190508181035f83015261084781846107ad565b905092915050565b5f80fd5b5f80fd5b7f4e487b71000000000000000000000000000000000000000000000000000000005f52604160045260245ffd5b61088d826105d9565b810181811067ffffffffffffffff821117156108ac576108ab610857565b5b80604052505050565b5f6108be61072e565b90506108ca8282610884565b919050565b5f67ffffffffffffffff8211156108e9576108e8610857565b5b6108f2826105d9565b9050602081019050919050565b828183375f83830152505050565b5f61091f61091a846108cf565b6108b5565b90508281526020810184848401111561093b5761093a610853565b5b6109468482856108ff565b509392505050565b5f82601f8301126109625761096161084f565b5b813561097284826020860161090d565b91505092915050565b5f805f6060848603121561099257610991610737565b5b5f84013567ffffffffffffffff8111156109af576109ae61073b565b5b6109bb8682870161094e565b935050602084013567ffffffffffffffff8111156109dc576109db61073b565b5b6109e88682870161094e565b925050604084013567ffffffffffffffff811115610a0957610a0861073b565b5b610a158682870161094e565b9150509250925092565b7f4e487b71000000000000000000000000000000000000000000000000000000005f52602260045260245ffd5b5f6002820490506001821680610a6357607f821691505b602082108103610a7657610a75610a1f565b5b50919050565b5f819050815f5260205f209050919050565b5f6020601f8301049050919050565b5f82821b905092915050565b5f60088302610ad87fffffffffffffffffffffffffffffffffffffffffffffffffffffffffffffffff82610a9d565b610ae28683610a9d565b95508019841693508086168417925050509392505050565b5f819050919050565b5f610b1d610b18610b138461073f565b610afa565b61073f565b9050919050565b5f819050919050565b610b3683610b03565b610b4a610b4282610b24565b848454610aa9565b825550505050565b5f90565b610b5e610b52565b610b69818484610b2d565b505050565b5b81811015610b8c57610b815f82610b56565b600181019050610b6f565b5050565b601f821115610bd157610ba281610a7c565b610bab84610a8e565b81016020851015610bba578190505b610bce610bc685610a8e565b830182610b6e565b50505b505050565b5f82821c905092915050565b5f610bf15f1984600802610bd6565b1980831691505092915050565b5f610c098383610be2565b9150826002028217905092915050565b610c2282610597565b67ffffffffffffffff811115610c3b57610c3a610857565b5b610c458254610a4c565b610c50828285610b90565b5f60209050601f831160018114610c81575f8415610c6f578287015190505b610c798582610bfe565b865550610ce0565b601f198416610c8f86610a7c565b5f5b82811015610cb657848901518255600182019150602085019450602081019050610c91565b86831015610cd35784890151610ccf601f891682610be2565b8355505b6001600288020188555050505b50505050505056fea26469706673582212203fe9c7303efd2c3618c5eeb5f6be367bd04e888b8832d6a67759c4ccac7cce5a64736f6c63430008150033",
  "immutableReferences": {},
  "source": "// SPDX-License-Identifier: UNLICENSED \r\n// Solidity program to print message\r\n\r\npragma solidity >= 0.5.0 < 0.9.0;\r\n\r\ncontract gfg{\r\nfunction geeks() public pure returns (string memory) \r\n{\r\n\treturn 'Hello mr perera';\r\n}\r\n\r\nstruct Block{\r\n    string descr;\r\n    string prev_addr;\r\n    string product_id;\r\n}\r\n\r\nBlock[] public blockchain;\r\n\r\nfunction addBlock(string memory _descr, string memory _prev_addr, string memory _product_id) public {\r\n    blockchain.push(Block(_descr,_prev_addr,_product_id));\r\n}\r\n\r\nfunction getBlockchain() public view returns (Block[] memory){\r\n    return blockchain;\r\n}\r\n\r\n}",
  "sourcePath": "E:\\projects\\finalproject\\product-tracing\\my-flask-backend\\blockchain\\contracts\\gfg.sol",
  "compiler": {
    "name": "solc",
    "version": "0.8.21+commit.d9974bed.Emscripten.clang"
  },
  "schemaVersion": "3.4.16",
  "updatedAt": "2024-04-19T06:18:48.851Z",
  "networkType": "ethereum",
  "devdoc": {
    "kind": "dev",
    "methods": {},
    "version": 1
  },
  "userdoc": {
    "kind": "user",
    "methods": {},
    "version": 1
  }
}