{
  "contractName": "gfg",
  "abi": [
    {
      "inputs": [
        {
          "internalType": "uint256",
          "name": "",
          "type": "uint256"
        }
      ],
      "name": "blockchain",
      "outputs": [
        {
          "internalType": "string",
          "name": "descr",
          "type": "string"
        },
        {
          "internalType": "string",
          "name": "product_id",
          "type": "string"
        }
      ],
      "stateMutability": "view",
      "type": "function",
      "constant": true
    },
    {
      "inputs": [],
      "name": "geeks",
      "outputs": [
        {
          "internalType": "string",
          "name": "",
          "type": "string"
        }
      ],
      "stateMutability": "pure",
      "type": "function",
      "constant": true
    },
    {
      "inputs": [
        {
          "internalType": "string",
          "name": "_descr",
          "type": "string"
        },
        {
          "internalType": "string[]",
          "name": "_prev_addr",
          "type": "string[]"
        },
        {
          "internalType": "string",
          "name": "_product_id",
          "type": "string"
        }
      ],
      "name": "addBlock",
      "outputs": [],
      "stateMutability": "nonpayable",
      "type": "function"
    },
    {
      "inputs": [],
      "name": "getBlockchain",
      "outputs": [
        {
          "components": [
            {
              "internalType": "string",
              "name": "descr",
              "type": "string"
            },
            {
              "internalType": "string[]",
              "name": "prev_addr",
              "type": "string[]"
            },
            {
              "internalType": "string",
              "name": "product_id",
              "type": "string"
            }
          ],
          "internalType": "struct gfg.Block[]",
          "name": "",
          "type": "tuple[]"
        }
      ],
      "stateMutability": "view",
      "type": "function",
      "constant": true
    }
  ],
  "bytecode": "0x608060405234801561000f575f80fd5b50610f368061001d5f395ff3fe608060405234801561000f575f80fd5b506004361061004a575f3560e01c806338ffb4f51461004e5780633d46424f1461006a578063c25b1eaf14610088578063f1a62c71146100b9575b5f80fd5b6100686004803603810190610063919061082d565b6100d7565b005b610072610167565b60405161007f9190610b1c565b60405180910390f35b6100a2600480360381019061009d9190610b6f565b6103b5565b6040516100b0929190610be2565b60405180910390f35b6100c16104ef565b6040516100ce9190610c17565b60405180910390f35b5f604051806060016040528085815260200184815260200183815250908060018154018082558091505060019003905f5260205f2090600302015f909190919091505f820151815f01908161012c9190610e31565b50602082015181600101908051906020019061014992919061052c565b50604082015181600201908161015f9190610e31565b505050505050565b60605f805480602002602001604051908101604052809291908181526020015f905b828210156103ac578382905f5260205f2090600302016040518060600160405290815f820180546101b990610c64565b80601f01602080910402602001604051908101604052809291908181526020018280546101e590610c64565b80156102305780601f1061020757610100808354040283529160200191610230565b820191905f5260205f20905b81548152906001019060200180831161021357829003601f168201915b5050505050815260200160018201805480602002602001604051908101604052809291908181526020015f905b82821015610305578382905f5260205f2001805461027a90610c64565b80601f01602080910402602001604051908101604052809291908181526020018280546102a690610c64565b80156102f15780601f106102c8576101008083540402835291602001916102f1565b820191905f5260205f20905b8154815290600101906020018083116102d457829003601f168201915b50505050508152602001906001019061025d565b50505050815260200160028201805461031d90610c64565b80601f016020809104026020016040519081016040528092919081815260200182805461034990610c64565b80156103945780601f1061036b57610100808354040283529160200191610394565b820191905f5260205f20905b81548152906001019060200180831161037757829003601f168201915b50505050508152505081526020019060010190610189565b50505050905090565b5f81815481106103c3575f80fd5b905f5260205f2090600302015f91509050805f0180546103e290610c64565b80601f016020809104026020016040519081016040528092919081815260200182805461040e90610c64565b80156104595780601f1061043057610100808354040283529160200191610459565b820191905f5260205f20905b81548152906001019060200180831161043c57829003601f168201915b50505050509080600201805461046e90610c64565b80601f016020809104026020016040519081016040528092919081815260200182805461049a90610c64565b80156104e55780601f106104bc576101008083540402835291602001916104e5565b820191905f5260205f20905b8154815290600101906020018083116104c857829003601f168201915b5050505050905082565b60606040518060400160405280600f81526020017f48656c6c6f206d72207065726572610000000000000000000000000000000000815250905090565b828054828255905f5260205f20908101928215610572579160200282015b828111156105715782518290816105619190610e31565b509160200191906001019061054a565b5b50905061057f9190610583565b5090565b5b808211156105a2575f818161059991906105a6565b50600101610584565b5090565b5080546105b290610c64565b5f825580601f106105c357506105e0565b601f0160209004905f5260205f20908101906105df91906105e3565b5b50565b5b808211156105fa575f815f9055506001016105e4565b5090565b5f604051905090565b5f80fd5b5f80fd5b5f80fd5b5f80fd5b5f601f19601f8301169050919050565b7f4e487b71000000000000000000000000000000000000000000000000000000005f52604160045260245ffd5b61065d82610617565b810181811067ffffffffffffffff8211171561067c5761067b610627565b5b80604052505050565b5f61068e6105fe565b905061069a8282610654565b919050565b5f67ffffffffffffffff8211156106b9576106b8610627565b5b6106c282610617565b9050602081019050919050565b828183375f83830152505050565b5f6106ef6106ea8461069f565b610685565b90508281526020810184848401111561070b5761070a610613565b5b6107168482856106cf565b509392505050565b5f82601f8301126107325761073161060f565b5b81356107428482602086016106dd565b91505092915050565b5f67ffffffffffffffff82111561076557610764610627565b5b602082029050602081019050919050565b5f80fd5b5f61078c6107878461074b565b610685565b905080838252602082019050602084028301858111156107af576107ae610776565b5b835b818110156107f657803567ffffffffffffffff8111156107d4576107d361060f565b5b8086016107e1898261071e565b855260208501945050506020810190506107b1565b5050509392505050565b5f82601f8301126108145761081361060f565b5b813561082484826020860161077a565b91505092915050565b5f805f6060848603121561084457610843610607565b5b5f84013567ffffffffffffffff8111156108615761086061060b565b5b61086d8682870161071e565b935050602084013567ffffffffffffffff81111561088e5761088d61060b565b5b61089a86828701610800565b925050604084013567ffffffffffffffff8111156108bb576108ba61060b565b5b6108c78682870161071e565b9150509250925092565b5f81519050919050565b5f82825260208201905092915050565b5f819050602082019050919050565b5f81519050919050565b5f82825260208201905092915050565b5f5b83811015610931578082015181840152602081019050610916565b5f8484015250505050565b5f610946826108fa565b6109508185610904565b9350610960818560208601610914565b61096981610617565b840191505092915050565b5f81519050919050565b5f82825260208201905092915050565b5f819050602082019050919050565b5f6109a8838361093c565b905092915050565b5f602082019050919050565b5f6109c682610974565b6109d0818561097e565b9350836020820285016109e28561098e565b805f5b85811015610a1d57848403895281516109fe858261099d565b9450610a09836109b0565b925060208a019950506001810190506109e5565b50829750879550505050505092915050565b5f606083015f8301518482035f860152610a49828261093c565b91505060208301518482036020860152610a6382826109bc565b91505060408301518482036040860152610a7d828261093c565b9150508091505092915050565b5f610a958383610a2f565b905092915050565b5f602082019050919050565b5f610ab3826108d1565b610abd81856108db565b935083602082028501610acf856108eb565b805f5b85811015610b0a5784840389528151610aeb8582610a8a565b9450610af683610a9d565b925060208a01995050600181019050610ad2565b50829750879550505050505092915050565b5f6020820190508181035f830152610b348184610aa9565b905092915050565b5f819050919050565b610b4e81610b3c565b8114610b58575f80fd5b50565b5f81359050610b6981610b45565b92915050565b5f60208284031215610b8457610b83610607565b5b5f610b9184828501610b5b565b91505092915050565b5f82825260208201905092915050565b5f610bb4826108fa565b610bbe8185610b9a565b9350610bce818560208601610914565b610bd781610617565b840191505092915050565b5f6040820190508181035f830152610bfa8185610baa565b90508181036020830152610c0e8184610baa565b90509392505050565b5f6020820190508181035f830152610c2f8184610baa565b905092915050565b7f4e487b71000000000000000000000000000000000000000000000000000000005f52602260045260245ffd5b5f6002820490506001821680610c7b57607f821691505b602082108103610c8e57610c8d610c37565b5b50919050565b5f819050815f5260205f209050919050565b5f6020601f8301049050919050565b5f82821b905092915050565b5f60088302610cf07fffffffffffffffffffffffffffffffffffffffffffffffffffffffffffffffff82610cb5565b610cfa8683610cb5565b95508019841693508086168417925050509392505050565b5f819050919050565b5f610d35610d30610d2b84610b3c565b610d12565b610b3c565b9050919050565b5f819050919050565b610d4e83610d1b565b610d62610d5a82610d3c565b848454610cc1565b825550505050565b5f90565b610d76610d6a565b610d81818484610d45565b505050565b5b81811015610da457610d995f82610d6e565b600181019050610d87565b5050565b601f821115610de957610dba81610c94565b610dc384610ca6565b81016020851015610dd2578190505b610de6610dde85610ca6565b830182610d86565b50505b505050565b5f82821c905092915050565b5f610e095f1984600802610dee565b1980831691505092915050565b5f610e218383610dfa565b9150826002028217905092915050565b610e3a826108fa565b67ffffffffffffffff811115610e5357610e52610627565b5b610e5d8254610c64565b610e68828285610da8565b5f60209050601f831160018114610e99575f8415610e87578287015190505b610e918582610e16565b865550610ef8565b601f198416610ea786610c94565b5f5b82811015610ece57848901518255600182019150602085019450602081019050610ea9565b86831015610eeb5784890151610ee7601f891682610dfa565b8355505b6001600288020188555050505b50505050505056fea2646970667358221220905cdd090a3d83a4ae8e0655a2382741a66cb9a4f2462238c06fb6a802b905d464736f6c63430008150033",
  "immutableReferences": {},
  "source": "// SPDX-License-Identifier: UNLICENSED \r\n// Solidity program to print message\r\n\r\npragma solidity >= 0.5.0 < 0.9.0;\r\n\r\ncontract gfg{\r\n    function geeks() public pure returns (string memory) \r\n    {\r\n        return 'Hello mr perera';\r\n    }\r\n\r\n    struct Block{\r\n        string descr;\r\n        string[] prev_addr;\r\n        \r\n        string product_id;\r\n        // bytes32 blockHash;\r\n    }\r\n\r\n\r\n    Block[] public blockchain;\r\n\r\n    function addBlock(string memory _descr, string[] memory _prev_addr, string memory _product_id) public {\r\n        // bytes32 blockHash = keccak256(abi.encodePacked(_descr, _prev_addr, _product_id));\r\n        blockchain.push(Block(_descr,_prev_addr,_product_id));\r\n    }\r\n\r\n    function getBlockchain() public view returns (Block[] memory){\r\n        return blockchain;\r\n    }\r\n\r\n}",
  "sourcePath": "E:\\projects\\finalproject\\product-tracing\\my-flask-backend\\blockchain\\contracts\\gfg.sol",
  "compiler": {
    "name": "solc",
    "version": "0.8.21+commit.d9974bed.Emscripten.clang"
  },
  "schemaVersion": "3.4.16",
  "updatedAt": "2024-05-09T06:36:03.648Z",
  "networkType": "ethereum",
  "devdoc": {
    "kind": "dev",
    "methods": {},
    "version": 1
  },
  "userdoc": {
    "kind": "user",
    "methods": {},
    "version": 1
  }
}